{
	"_format": "hh-sol-artifact-1",
	"contractName": "SingleAsset",
	"sourceName": "contracts/SingleAsset.sol",
	"abi": [
		{
			"inputs": [],
			"stateMutability": "nonpayable",
			"type": "constructor"
		},
		{
			"anonymous": false,
			"inputs": [
				{
					"indexed": true,
					"internalType": "address",
					"name": "owner",
					"type": "address"
				},
				{
					"indexed": true,
					"internalType": "address",
					"name": "approved",
					"type": "address"
				},
				{
					"indexed": true,
					"internalType": "uint256",
					"name": "tokenId",
					"type": "uint256"
				}
			],
			"name": "Approval",
			"type": "event"
		},
		{
			"anonymous": false,
			"inputs": [
				{
					"indexed": true,
					"internalType": "address",
					"name": "owner",
					"type": "address"
				},
				{
					"indexed": true,
					"internalType": "address",
					"name": "operator",
					"type": "address"
				},
				{
					"indexed": false,
					"internalType": "bool",
					"name": "approved",
					"type": "bool"
				}
			],
			"name": "ApprovalForAll",
			"type": "event"
		},
		{
			"anonymous": false,
			"inputs": [
				{
					"indexed": true,
					"internalType": "address",
					"name": "previousOwner",
					"type": "address"
				},
				{
					"indexed": true,
					"internalType": "address",
					"name": "newOwner",
					"type": "address"
				}
			],
			"name": "OwnershipTransferred",
			"type": "event"
		},
		{
			"anonymous": false,
			"inputs": [
				{
					"indexed": true,
					"internalType": "address",
					"name": "from",
					"type": "address"
				},
				{
					"indexed": true,
					"internalType": "address",
					"name": "to",
					"type": "address"
				},
				{
					"indexed": true,
					"internalType": "uint256",
					"name": "tokenId",
					"type": "uint256"
				}
			],
			"name": "Transfer",
			"type": "event"
		},
		{
			"inputs": [
				{
					"internalType": "address",
					"name": "to",
					"type": "address"
				},
				{
					"internalType": "uint256",
					"name": "tokenId",
					"type": "uint256"
				}
			],
			"name": "approve",
			"outputs": [],
			"stateMutability": "nonpayable",
			"type": "function"
		},
		{
			"inputs": [
				{
					"internalType": "address",
					"name": "owner",
					"type": "address"
				}
			],
			"name": "balanceOf",
			"outputs": [
				{
					"internalType": "uint256",
					"name": "",
					"type": "uint256"
				}
			],
			"stateMutability": "view",
			"type": "function"
		},
		{
			"inputs": [
				{
					"internalType": "uint256",
					"name": "tokenId",
					"type": "uint256"
				}
			],
			"name": "getApproved",
			"outputs": [
				{
					"internalType": "address",
					"name": "",
					"type": "address"
				}
			],
			"stateMutability": "view",
			"type": "function"
		},
		{
			"inputs": [
				{
					"internalType": "address",
					"name": "owner",
					"type": "address"
				},
				{
					"internalType": "address",
					"name": "operator",
					"type": "address"
				}
			],
			"name": "isApprovedForAll",
			"outputs": [
				{
					"internalType": "bool",
					"name": "",
					"type": "bool"
				}
			],
			"stateMutability": "view",
			"type": "function"
		},
		{
			"inputs": [
				{
					"internalType": "address",
					"name": "recipient",
					"type": "address"
				},
				{
					"internalType": "string",
					"name": "uri",
					"type": "string"
				}
			],
			"name": "mint",
			"outputs": [
				{
					"internalType": "uint256",
					"name": "",
					"type": "uint256"
				}
			],
			"stateMutability": "nonpayable",
			"type": "function"
		},
		{
			"inputs": [],
			"name": "name",
			"outputs": [
				{
					"internalType": "string",
					"name": "",
					"type": "string"
				}
			],
			"stateMutability": "view",
			"type": "function"
		},
		{
			"inputs": [],
			"name": "owner",
			"outputs": [
				{
					"internalType": "address",
					"name": "",
					"type": "address"
				}
			],
			"stateMutability": "view",
			"type": "function"
		},
		{
			"inputs": [
				{
					"internalType": "uint256",
					"name": "tokenId",
					"type": "uint256"
				}
			],
			"name": "ownerOf",
			"outputs": [
				{
					"internalType": "address",
					"name": "",
					"type": "address"
				}
			],
			"stateMutability": "view",
			"type": "function"
		},
		{
			"inputs": [],
			"name": "renounceOwnership",
			"outputs": [],
			"stateMutability": "nonpayable",
			"type": "function"
		},
		{
			"inputs": [
				{
					"internalType": "address",
					"name": "from",
					"type": "address"
				},
				{
					"internalType": "address",
					"name": "to",
					"type": "address"
				},
				{
					"internalType": "uint256",
					"name": "tokenId",
					"type": "uint256"
				}
			],
			"name": "safeTransferFrom",
			"outputs": [],
			"stateMutability": "nonpayable",
			"type": "function"
		},
		{
			"inputs": [
				{
					"internalType": "address",
					"name": "from",
					"type": "address"
				},
				{
					"internalType": "address",
					"name": "to",
					"type": "address"
				},
				{
					"internalType": "uint256",
					"name": "tokenId",
					"type": "uint256"
				},
				{
					"internalType": "bytes",
					"name": "_data",
					"type": "bytes"
				}
			],
			"name": "safeTransferFrom",
			"outputs": [],
			"stateMutability": "nonpayable",
			"type": "function"
		},
		{
			"inputs": [
				{
					"internalType": "address",
					"name": "operator",
					"type": "address"
				},
				{
					"internalType": "bool",
					"name": "approved",
					"type": "bool"
				}
			],
			"name": "setApprovalForAll",
			"outputs": [],
			"stateMutability": "nonpayable",
			"type": "function"
		},
		{
			"inputs": [
				{
					"internalType": "bytes4",
					"name": "interfaceId",
					"type": "bytes4"
				}
			],
			"name": "supportsInterface",
			"outputs": [
				{
					"internalType": "bool",
					"name": "",
					"type": "bool"
				}
			],
			"stateMutability": "view",
			"type": "function"
		},
		{
			"inputs": [],
			"name": "symbol",
			"outputs": [
				{
					"internalType": "string",
					"name": "",
					"type": "string"
				}
			],
			"stateMutability": "view",
			"type": "function"
		},
		{
			"inputs": [
				{
					"internalType": "uint256",
					"name": "tokenId",
					"type": "uint256"
				}
			],
			"name": "tokenURI",
			"outputs": [
				{
					"internalType": "string",
					"name": "",
					"type": "string"
				}
			],
			"stateMutability": "view",
			"type": "function"
		},
		{
			"inputs": [
				{
					"internalType": "address",
					"name": "from",
					"type": "address"
				},
				{
					"internalType": "address",
					"name": "to",
					"type": "address"
				},
				{
					"internalType": "uint256",
					"name": "tokenId",
					"type": "uint256"
				}
			],
			"name": "transferFrom",
			"outputs": [],
			"stateMutability": "nonpayable",
			"type": "function"
		},
		{
			"inputs": [
				{
					"internalType": "address",
					"name": "newOwner",
					"type": "address"
				}
			],
			"name": "transferOwnership",
			"outputs": [],
			"stateMutability": "nonpayable",
			"type": "function"
		}
	],
	"bytecode": "0x60806040523480156200001157600080fd5b50604080518082018252601081526f135a5b9d1a54da5b99db19505cdcd95d60821b6020808301918252835180850190945260038452624d534160e81b9084015281519192916200006591600091620000e8565b5080516200007b906001906020840190620000e8565b505050600062000090620000e460201b60201c565b600680546001600160a01b0319166001600160a01b038316908117909155604051919250906000907f8be0079c531659141344cd1fd0a4f28419497f9722a3daafe3b4186f6b6457e0908290a350620001cb565b3390565b828054620000f6906200018e565b90600052602060002090601f0160209004810192826200011a576000855562000165565b82601f106200013557805160ff191683800117855562000165565b8280016001018555821562000165579182015b828111156200016557825182559160200191906001019062000148565b506200017392915062000177565b5090565b5b8082111562000173576000815560010162000178565b600281046001821680620001a357607f821691505b60208210811415620001c557634e487b7160e01b600052602260045260246000fd5b50919050565b61171880620001db6000396000f3fe608060405234801561001057600080fd5b506004361061010b5760003560e01c8063715018a6116100a2578063b88d4fde11610071578063b88d4fde14610207578063c87b56dd1461021a578063d0def5211461022d578063e985e9c514610240578063f2fde38b146102535761010b565b8063715018a6146101dc5780638da5cb5b146101e457806395d89b41146101ec578063a22cb465146101f45761010b565b806323b872dd116100de57806323b872dd1461018357806342842e0e146101965780636352211e146101a957806370a08231146101bc5761010b565b806301ffc9a71461011057806306fdde0314610139578063081812fc1461014e578063095ea7b31461016e575b600080fd5b61012361011e3660046110bd565b610266565b60405161013091906111a9565b60405180910390f35b6101416102ae565b60405161013091906111b4565b61016161015c3660046110f5565b610340565b6040516101309190611158565b61018161017c366004611094565b61038c565b005b610181610191366004610f47565b610424565b6101816101a4366004610f47565b61045c565b6101616101b73660046110f5565b610477565b6101cf6101ca366004610efb565b6104ac565b604051610130919061162d565b6101816104f0565b610161610579565b610141610588565b610181610202366004610ffb565b610597565b610181610215366004610f82565b610665565b6101416102283660046110f5565b6106a4565b6101cf61023b366004611035565b61076a565b61012361024e366004610f15565b6107cc565b610181610261366004610efb565b6107fa565b60006001600160e01b031982166380ac58cd60e01b148061029757506001600160e01b03198216635b5e139f60e01b145b806102a657506102a6826108bb565b90505b919050565b6060600080546102bd90611665565b80601f01602080910402602001604051908101604052809291908181526020018280546102e990611665565b80156103365780601f1061030b57610100808354040283529160200191610336565b820191906000526020600020905b81548152906001019060200180831161031957829003601f168201915b5050505050905090565b600061034b826108d4565b6103705760405162461bcd60e51b815260040161036790611482565b60405180910390fd5b506000908152600460205260409020546001600160a01b031690565b600061039782610477565b9050806001600160a01b0316836001600160a01b031614156103cb5760405162461bcd60e51b81526004016103679061159b565b806001600160a01b03166103dd6108f1565b6001600160a01b031614806103f957506103f98161024e6108f1565b6104155760405162461bcd60e51b81526004016103679061135d565b61041f83836108f5565b505050565b61043561042f6108f1565b82610963565b6104515760405162461bcd60e51b8152600401610367906115dc565b61041f8383836109e8565b61041f83838360405180602001604052806000815250610665565b6000818152600260205260408120546001600160a01b0316806102a65760405162461bcd60e51b815260040161036790611404565b60006001600160a01b0382166104d45760405162461bcd60e51b8152600401610367906113ba565b506001600160a01b031660009081526003602052604090205490565b6104f86108f1565b6001600160a01b0316610509610579565b6001600160a01b03161461052f5760405162461bcd60e51b8152600401610367906114ce565b6006546040516000916001600160a01b0316907f8be0079c531659141344cd1fd0a4f28419497f9722a3daafe3b4186f6b6457e0908390a3600680546001600160a01b0319169055565b6006546001600160a01b031690565b6060600180546102bd90611665565b61059f6108f1565b6001600160a01b0316826001600160a01b031614156105d05760405162461bcd60e51b8152600401610367906112da565b80600560006105dd6108f1565b6001600160a01b03908116825260208083019390935260409182016000908120918716808252919093529120805460ff1916921515929092179091556106216108f1565b6001600160a01b03167f17307eab39ab6107e8899845ad3d59bd9653f200f220920489ca2b5937696c318360405161065991906111a9565b60405180910390a35050565b6106766106706108f1565b83610963565b6106925760405162461bcd60e51b8152600401610367906115dc565b61069e84848484610b15565b50505050565b60606106af826108d4565b6106cb5760405162461bcd60e51b81526004016103679061154c565b600082815260086020526040812080546106e490611665565b80601f016020809104026020016040519081016040528092919081815260200182805461071090611665565b801561075d5780601f106107325761010080835404028352916020019161075d565b820191906000526020600020905b81548152906001019060200180831161074057829003601f168201915b5093979650505050505050565b60006107766007610b48565b60006107826007610b51565b905061078e8482610b55565b6107988184610c34565b6107c56040518060400160405280600c81526020016b36b4b73a32b2103a37b5b2b760a11b815250610c53565b9392505050565b6001600160a01b03918216600090815260056020908152604080832093909416825291909152205460ff1690565b6108026108f1565b6001600160a01b0316610813610579565b6001600160a01b0316146108395760405162461bcd60e51b8152600401610367906114ce565b6001600160a01b03811661085f5760405162461bcd60e51b815260040161036790611219565b6006546040516001600160a01b038084169216907f8be0079c531659141344cd1fd0a4f28419497f9722a3daafe3b4186f6b6457e090600090a3600680546001600160a01b0319166001600160a01b0392909216919091179055565b6001600160e01b031981166301ffc9a760e01b14919050565b6000908152600260205260409020546001600160a01b0316151590565b3390565b600081815260046020526040902080546001600160a01b0319166001600160a01b038416908117909155819061092a82610477565b6001600160a01b03167f8c5be1e5ebec7d5bd14f71427d1e84f3dd0314c0f7b2291e5b200ac8c7c3b92560405160405180910390a45050565b600061096e826108d4565b61098a5760405162461bcd60e51b815260040161036790611311565b600061099583610477565b9050806001600160a01b0316846001600160a01b031614806109d05750836001600160a01b03166109c584610340565b6001600160a01b0316145b806109e057506109e081856107cc565b949350505050565b826001600160a01b03166109fb82610477565b6001600160a01b031614610a215760405162461bcd60e51b815260040161036790611503565b6001600160a01b038216610a475760405162461bcd60e51b815260040161036790611296565b610a5283838361041f565b610a5d6000826108f5565b6001600160a01b0383166000908152600360205260408120805460019290610a8690849061164e565b90915550506001600160a01b0382166000908152600360205260408120805460019290610ab4908490611636565b909155505060008181526002602052604080822080546001600160a01b0319166001600160a01b0386811691821790925591518493918716917fddf252ad1be2c89b69c2b068fc378daa952ba7f163c4a11628f55a4df523b3ef91a4505050565b610b208484846109e8565b610b2c84848484610c99565b61069e5760405162461bcd60e51b8152600401610367906111c7565b80546001019055565b5490565b6001600160a01b038216610b7b5760405162461bcd60e51b81526004016103679061144d565b610b84816108d4565b15610ba15760405162461bcd60e51b81526004016103679061125f565b610bad6000838361041f565b6001600160a01b0382166000908152600360205260408120805460019290610bd6908490611636565b909155505060008181526002602052604080822080546001600160a01b0319166001600160a01b03861690811790915590518392907fddf252ad1be2c89b69c2b068fc378daa952ba7f163c4a11628f55a4df523b3ef908290a45050565b6000828152600860209081526040909120825161041f92840190610ddb565b610c9681604051602401610c6791906111b4565b60408051601f198184030181529190526020810180516001600160e01b031663104c13eb60e21b179052610db4565b50565b6000610cad846001600160a01b0316610dd5565b15610da957836001600160a01b031663150b7a02610cc96108f1565b8786866040518563ffffffff1660e01b8152600401610ceb949392919061116c565b602060405180830381600087803b158015610d0557600080fd5b505af1925050508015610d35575060408051601f3d908101601f19168201909252610d32918101906110d9565b60015b610d8f573d808015610d63576040519150601f19603f3d011682016040523d82523d6000602084013e610d68565b606091505b508051610d875760405162461bcd60e51b8152600401610367906111c7565b805181602001fd5b6001600160e01b031916630a85bd0160e11b1490506109e0565b506001949350505050565b80516a636f6e736f6c652e6c6f67602083016000808483855afa5050505050565b3b151590565b828054610de790611665565b90600052602060002090601f016020900481019282610e095760008555610e4f565b82601f10610e2257805160ff1916838001178555610e4f565b82800160010185558215610e4f579182015b82811115610e4f578251825591602001919060010190610e34565b50610e5b929150610e5f565b5090565b5b80821115610e5b5760008155600101610e60565b600067ffffffffffffffff80841115610e8f57610e8f6116b6565b604051601f8501601f191681016020018281118282101715610eb357610eb36116b6565b604052848152915081838501861015610ecb57600080fd5b8484602083013760006020868301015250509392505050565b80356001600160a01b03811681146102a957600080fd5b600060208284031215610f0c578081fd5b6107c582610ee4565b60008060408385031215610f27578081fd5b610f3083610ee4565b9150610f3e60208401610ee4565b90509250929050565b600080600060608486031215610f5b578081fd5b610f6484610ee4565b9250610f7260208501610ee4565b9150604084013590509250925092565b60008060008060808587031215610f97578081fd5b610fa085610ee4565b9350610fae60208601610ee4565b925060408501359150606085013567ffffffffffffffff811115610fd0578182fd5b8501601f81018713610fe0578182fd5b610fef87823560208401610e74565b91505092959194509250565b6000806040838503121561100d578182fd5b61101683610ee4565b91506020830135801515811461102a578182fd5b809150509250929050565b60008060408385031215611047578182fd5b61105083610ee4565b9150602083013567ffffffffffffffff81111561106b578182fd5b8301601f8101851361107b578182fd5b61108a85823560208401610e74565b9150509250929050565b600080604083850312156110a6578182fd5b6110af83610ee4565b946020939093013593505050565b6000602082840312156110ce578081fd5b81356107c5816116cc565b6000602082840312156110ea578081fd5b81516107c5816116cc565b600060208284031215611106578081fd5b5035919050565b60008151808452815b8181101561113257602081850181015186830182015201611116565b818111156111435782602083870101525b50601f01601f19169290920160200192915050565b6001600160a01b0391909116815260200190565b6001600160a01b038581168252841660208201526040810183905260806060820181905260009061119f9083018461110d565b9695505050505050565b901515815260200190565b6000602082526107c5602083018461110d565b60208082526032908201527f4552433732313a207472616e7366657220746f206e6f6e20455243373231526560408201527131b2b4bb32b91034b6b83632b6b2b73a32b960711b606082015260800190565b60208082526026908201527f4f776e61626c653a206e6577206f776e657220697320746865207a65726f206160408201526564647265737360d01b606082015260800190565b6020808252601c908201527f4552433732313a20746f6b656e20616c7265616479206d696e74656400000000604082015260600190565b60208082526024908201527f4552433732313a207472616e7366657220746f20746865207a65726f206164646040820152637265737360e01b606082015260800190565b60208082526019908201527f4552433732313a20617070726f766520746f2063616c6c657200000000000000604082015260600190565b6020808252602c908201527f4552433732313a206f70657261746f7220717565727920666f72206e6f6e657860408201526b34b9ba32b73a103a37b5b2b760a11b606082015260800190565b60208082526038908201527f4552433732313a20617070726f76652063616c6c6572206973206e6f74206f7760408201527f6e6572206e6f7220617070726f76656420666f7220616c6c0000000000000000606082015260800190565b6020808252602a908201527f4552433732313a2062616c616e636520717565727920666f7220746865207a65604082015269726f206164647265737360b01b606082015260800190565b60208082526029908201527f4552433732313a206f776e657220717565727920666f72206e6f6e657869737460408201526832b73a103a37b5b2b760b91b606082015260800190565b6020808252818101527f4552433732313a206d696e7420746f20746865207a65726f2061646472657373604082015260600190565b6020808252602c908201527f4552433732313a20617070726f76656420717565727920666f72206e6f6e657860408201526b34b9ba32b73a103a37b5b2b760a11b606082015260800190565b6020808252818101527f4f776e61626c653a2063616c6c6572206973206e6f7420746865206f776e6572604082015260600190565b60208082526029908201527f4552433732313a207472616e73666572206f6620746f6b656e2074686174206960408201526839903737ba1037bbb760b91b606082015260800190565b6020808252602f908201527f4552433732314d657461646174613a2055524920717565727920666f72206e6f60408201526e3732bc34b9ba32b73a103a37b5b2b760891b606082015260800190565b60208082526021908201527f4552433732313a20617070726f76616c20746f2063757272656e74206f776e656040820152603960f91b606082015260800190565b60208082526031908201527f4552433732313a207472616e736665722063616c6c6572206973206e6f74206f6040820152701ddb995c881b9bdc88185c1c1c9bdd9959607a1b606082015260800190565b90815260200190565b60008219821115611649576116496116a0565b500190565b600082821015611660576116606116a0565b500390565b60028104600182168061167957607f821691505b6020821081141561169a57634e487b7160e01b600052602260045260246000fd5b50919050565b634e487b7160e01b600052601160045260246000fd5b634e487b7160e01b600052604160045260246000fd5b6001600160e01b031981168114610c9657600080fdfea264697066735822122066584e59776b9cd4b0f0cab44f0a769c5ac4da6bf6523214d71ed1a846c2af2864736f6c63430008000033",
	"linkReferences": {},
	"deployedLinkReferences": {}
}